:020000040800F2
:10280000E0040020012900081533000811330008F6
:1028100013330008512900086D350008000000003E
:102820000000000000000000000000001933000854
:102830009729000800000000173300081B33000828
:102840001729000817290008172900081729000868
:102850001729000817290008172900081729000858
:102860001729000817290008172900081729000848
:1028700017290008172900085529000861290008B0
:102880001729000817290008172900081729000828
:102890001729000817290008172900081729000818
:1028A0001729000817290008172900081729000808
:1028B0001729000817290008000000001729000840
:1028C0001729000800000000000000001729000878
:1028D0000000000061350008172900080000000012
:1028E000172900081729000817290008DFF80CD05D
:1028F00000F014F800480047AD350008E00400205F
:1029000005480047FEE7FEE7FEE7FEE7FEE7FEE7D5
:10291000FEE7FEE7FEE7FEE7ED280008064C074D60
:1029200006E0E06840F0010394E80700984710349F
:10293000AC42F6D3FFF7DEFF6836000888360008A1
:1029400002490148086070470028000808ED00E0CF
:10295000FEE70000014800F091B800009800002058
:10296000014800F08BB800005400002030B590F80A
:1029700040500124AC40C56B6C60046863604368E0
:10298000102B036803D099600068C26030BD9A6064
:102990000068C16030BD704772B6FEE710B590F8B0
:1029A00021100022022905D00421816380F8202013
:1029B000012010BD01680B6823F00E030B60016855
:1029C0000B6823F001030B6090F84030C46B0121C9
:1029D00001FA03F3636080F8211080F8202010468C
:1029E00010BD000010B590F821100024022903D07A
:1029F0000421816301243DE001680A6822F00E028F
:102A00000A6001680A6822F001020A601A4A016835
:102A1000914201D1012121E0174A1432914201D1A2
:102A200010211BE0144A2832914201D1891515E08A
:102A3000114A3C32914201D189140FE00E4A5032C2
:102A4000914202D14FF4803108E00B4A6432914246
:102A500002D14FF4801101E04FF08071064A083A2C
:102A60005160012180F82110002180F82010416B75
:102A700001B18847204610BD080002402DE9F05FF3
:102A8000C16B0C6801680B68D0F840C0042202FAE0
:102A90000CF2494DDFF824A1494E4A4FDFF828B126
:102AA000DFF828E122422CD05A072AD50A6892067C
:102AB00003D40A6822F004020A600168A94201D125
:102AC000042219E0514501D1402215E0B14202D162
:102AD0004FF4806210E0B94202D14FF480420BE023
:102AE000594502D14FF4802206E0714502D14FF4DE
:102AF000800201E04FF080622F4908394A60C16AC4
:102B00003BE04FF0020808FA0CF818EA040F4FF007
:102B100000094FF0010235D05FEA837832D50B68A7
:102B20009B0605D40B6823F00A030B6080F8212074
:102B30000168A94201D1022219E0514501D12022A8
:102B400015E0B14202D14FF4007210E0B94202D157
:102B50004FF400520BE0594502D14FF4003206E029
:102B6000714502D14FF4001201E04FF0007212499A
:102B700008394A6080F82090816A00291AD0BDE89F
:102B8000F05F0847082505FA0CF5254212D01B070F
:102B900010D50B6823F00E030B6090F84010C36B48
:102BA00002FA01F15960826380F8212080F82090B8
:102BB000016BE2E7BDE8F09F080002401C00024004
:102BC0003000024044000240580002406C000240C5
:102BD00030B528B308C8134914221944B1FBF2F1E7
:102BE0008900C16310498163022141771A6843F665
:102BF000F0718A43D0E900142143D0E902452C4307
:102C000021430469214344692143846921431143D9
:102C1000196000214163012242770177084630BDE7
:102C2000012030BDF8FFFDBF0000024070B5044632
:102C300090F82000002501280CD0012084F8200005
:102C400094F821600020012E06D084F8200002258F
:102C5000284670BD022070BD022684F82160A06362
:102C60002068066826F0010606602046FFF77EFE13
:102C7000E06A00282068016802D041F00E0106E0F9
:102C800021F0040101602068016841F00A0101603F
:102C90002068016841F001010160D9E770B5044680
:102CA00000F0EEF80546601C02D0044800780444A9
:102CB00000F0E6F8401BA042FAD370BD00000020EF
:102CC0002DE9F84FDFF89C91002409F1040A0AF17C
:102CD000040B23460F270BF1040EBBE00125A54092
:102CE0002A40AA4276D1DFF880C14E68A6EB0C08D4
:102CF00066452BD00DDC032E34D005DC36B3012E17
:102D000019D0022E2FD11BE0112E16D0122E2AD14F
:102D100019E0B8F5881F19D006DCB8F5803F15D04A
:102D2000B8F5801F1FD111E0B8F5001F0ED0B8F51F
:102D3000041F18D10AE0CB6815E0CB681B1D12E018
:102D4000CB6808330FE0CB680C330CE08B682BB1F9
:102D5000012B4FF0080303D0456104E0042302E097
:102D6000056100E00023FF2A01D8064601E000F1DA
:102D700004064FEA840501D9A5F12005D6F80080A4
:102D800007FA05FC28EA0C0803FA05F548EA0508E5
:102D9000C6F800804D68ED005BD5344DAE6946F055
:102DA0000106AE61AD6924F0030605F0010500954A
:102DB0002F4D06EB050CDCF80850A607360F07FA76
:102DC00006F825EA0805DFF8AC80404503D14FF04E
:102DD000000810E03DE0DFF8A080404502D14FF050
:102DE000010808E0DFF89480404502D14FF0020866
:102DF00001E04FF0030808FA06F848EA0508CCF8A5
:102E000008804D68D9F80060ED034D4601D51643A2
:102E100000E096432E604D68DAF80060AD03554639
:102E200001D5164300E096432E604D68DBF8006044
:102E3000ED025D4601D5164300E096432E604D68D5
:102E4000DEF80060AD02754601D5164300E09643FA
:102E50002E60641C0A6832FA04F57FF43FAFBDE8C7
:102E6000F88F000000040140000011100010024023
:102E70000000014000080140000C0140001001402A
:102E80000148806870470000000000200248816807
:102E9000027811448160704700000020002809DB9F
:102EA00000F01F02012191404009800000F1E02064
:102EB000C0F8001170470000F0B40E4B1B680C46C0
:102EC000C3F30223C3F10705042D00D90425191DFE
:102ED000072901D2002300E0DB1E012606FA05F1D6
:102EE000491E214099409E40761E16403143F0BC59
:102EF00000F03DBB0CED00E004480549006849685E
:102F0000044AC1F30221515CC84070470C00002004
:102F1000001002406036000804480549006849680E
:102F2000044AC1F3C221515CC84070470C00002024
:102F3000001002406036000870477047F8B502681C
:102F400004461068D168536910F00F0F4FF0000568
:102F500053D003F0010601F4907737435FD0C207E6
:102F600005D0CA0503D5226C42F001022264420753
:102F700005D5DA0703D0226C42F0020222648207F0
:102F800005D5DA0703D0226C42F00402226402075E
:102F900007D501F02002324303D0226C42F0080230
:102FA0002264226C002A34D0800604D5880602D51B
:102FB000204600F01EFA20684069216CC0F38010A2
:102FC000090700D430B3204600F0F2F920684169C7
:102FD00049061BD5416921F040014161A06BA8B1B0
:102FE00058494163A06BFFF7FDFC002811D0A06B8E
:102FF000416B01B0BDE8F040084783060FD58B0652
:103000000DD52046BDE8F84000F0F3B92046FFF7A3
:1030100094FFF8BD2046FFF790FF2564F8BD266BAE
:103020002023012E52D1C60650D5CE064ED51068AB
:1030300050680090506940062AD5A16B0868406826
:103040000004000CEAD0A68D8642E7D9E0858869A5
:10305000202818D0D06820F48070D06020684169A2
:1030600021F0010141612068416921F04001416185
:1030700084F83E3025632068C16821F01001C160EA
:10308000A06BFFF78BFCA08DE18D401A81B219E097
:10309000A08DE18D401A81B2E08D0028BED00029BC
:1030A000BCD0D06820F49070D0602068426922F0D3
:1030B0000102426184F83E3025632068C26822F034
:1030C0001002C2602046FFF737FFF8BD05062BD57A
:1030D0000D0629D594F83D002128F6D1A068B0F559
:1030E000805F01D12069B0B1206A411C2162216852
:1030F00000784860E08C401E0004000CE084E4D1BD
:103100002068C16821F08001C1602068C16841F079
:103110004001C160F8BD206A0088C0F3080050601B
:10312000206A801C2062E5E74006F3D54806F1D509
:10313000D168204621F04001D16084F83D3000F094
:10314000E5F8F8BD1F33000870B5040004D094F80A
:103150003D00002510B106E0012070BD84F83C5010
:10316000204600F023F8242084F83D002068C16840
:1031700021F40051C160204600F096F920680169F1
:1031800021F4904101612068416921F02A014161E7
:103190002068C16841F40051C1602564202084F892
:1031A0003D0084F83E00002070BD0000F0B585B001
:1031B00000240646009401940294039400682C496C
:1031C000884253D12B48816941F4804181618169F2
:1031D00001F480410491816941F0040181618069B9
:1031E000254D00F0040004904FF400700090022080
:1031F00001900320039069462846FFF761FD2815DA
:10320000CDE90004694628460294FFF759FD1C4D9C
:103210001A488027C5E90004C5E9024720202C612F
:10322000C5E905402846EC61FFF7D2FC08B1FFF77D
:10323000B3FBB5636E621148124D143801C51020FE
:1032400091C5104845F810496C61AC61EC61FFF71D
:10325000BFFC08B1FFF7A0FB7563002211462520D3
:103260006E62FFF729FE2520FFF718FE05B0F0BDBE
:1032700000380140001002400008014058000240A0
:1032800054000020980000207047000070B50446EC
:1032900090F83D00202830D169B362B394F83C0027
:1032A00001282AD0012084F83C002162A284E28413
:1032B00000252564212084F83D00636B1048986246
:1032C000636B1048D862636B0F481863606B1346DA
:1032D00045632668606B321DFFF7A8FC21686FF01C
:1032E0004000086084F83C502068416941F080014A
:1032F0004161002070BD012070BD022070BD000042
:1033000079330008A73300082F330008704770474F
:10331000FEE7FEE7FEE770477047FFF7B7BD10B561
:10332000406A0021C185C184FFF707FE10BD70B55A
:10333000446A2068406994F83D10C0F3C01000252D
:10334000212904D118B1E584204600F049F820680D
:10335000406994F83E10C0F38010222904D118B1BE
:10336000E585204600F024F8206C40F01000206431
:103370002046FFF7E2FD70BD10B50146406A0968BE
:10338000096889060CD40021C18401684A6922F0C9
:1033900080024A610068C16841F04001C16010BD0F
:1033A000FFF7B4FF10BD10B5406AFFF7B0FF10BDC6
:1033B0000168CA6822F49072CA6001684A6922F002
:1033C00001024A61016B012904D10168CA6822F037
:1033D0001002CA60202180F83E100021016370476E
:1033E0000168CA6822F0C002CA60202180F83D103E
:1033F000704708B590F83E10222901D0022008BD80
:1034000082684FF480539A4201D1016921B1816AE7
:103410009A421BD04AB10AE00268816A5268C2F33C
:1034200008020A80816A891C08E0026972B1026898
:10343000526802F07F020A70816A491C8162C18D64
:10344000491E0904090CC18503D019E002685268BD
:10345000F1E70168CA6822F02002CA600168CA6800
:1034600022F48072CA6001684A6922F001024A614E
:10347000202180F83E10016B012903D0FFF704FFE3
:10348000002008BD002101630168CA6822F0100213
:10349000CA6001680A68D20602D50A6849680091C4
:1034A000818DFFF749FDEBE770B5044600680169BF
:1034B000E26821F44051114301612169A068084389
:1034C000616908432168CA6841F20C639A43024368
:1034D000CA6020684169A26921F4407111434161C9
:1034E0001E492068884202D1FFF716FD01E0FFF770
:1034F00003FD00EBC00101EB001260686421800055
:10350000B2FBF0F3B3FBF1F36FF018067343B2FBB9
:10351000F0F5B2FBF0F605EB8305322303EB05155E
:10352000B5FBF1F5B6FBF1F605F0F00505EB061578
:10353000B2FBF0F6B2FBF0F0B0FBF1F06FF0180266
:10354000504306EB800003EB0010B0FBF1F0216864
:1035500000F00F002844886070BD00000038014072
:103560000148FFF7EBBC000010000020FEE7090750
:10357000090E002804DB00F1E02080F800147047F9
:1035800000F00F0000F1E02080F8141D704702E009
:1035900008C8121F08C1002AFAD1704770470020DE
:1035A00001E001C1121F002AFBD170470EB5FFF7E1
:1035B000C7F92648816941F020018161816901F0E4
:1035C00020010291816941F004018161816901F06A
:1035D00004010291416941F0010141614069002209
:1035E00000F00100029011460E20FFF765FC0E204E
:1035F000FFF754FC002211460F20FFF75DFC0F205F
:10360000FFF74CFC134812490C2201604FF4E131E2
:10361000416000218160C160C0E904128161C16123
:10362000FFF792FD08B172B6FEE70BA04FF47A7473
:10363000D0E90010CDE900102046FFF72FFB05224E
:1036400069460448FFF722FEF6E70000001002403A
:1036500000380140100000200001020304000000B7
:10366000000000000102030488360008000000206A
:10367000100000008E350008983600081000002069
:10368000D00400009E35000801000000100000007A
:083690000000000000A24A0442
:04000005080028EDDA
:00000001FF
